:1000000000308A000428000003081F3983001930DB
:1000100083169900A63098009030831298008316BA
:100020001F149F141F159F1107309C008313831208
:100030008C1E85288C1E1A281A08A1002108773CDE
:10004000031D2B28831605108312051483168510B3
:100050008312851085282108733C031D38288316D8
:1000600005108312051083168510831285148528C8
:100070002108643C031D45288316051083120514CE
:10008000831685108312851485282108613C031D81
:1000900052288316051083120510831685108312CB
:1000A000851085282108783C031D5F2883160510DC
:1000B0008312051483168510831285108528210864
:1000C0007A3C031D6C2883160510831205108316D5
:1000D00085108312851485282108633C031D792827
:1000E0008316051083120514831685108312851458
:1000F00085282108763C031D852883160510831268
:0E0100000510831685108312851018286300E1
:02400E00713F00
:00000001FF
;PIC16F877A
;CRC=9014  CREATED="06-nov.-24 17:09"
