:1000000000308A000428000003081F3983001930DB
:1000100083169900A63098009030831298008316BA
:100020001F149F141F159F1107309C008313831208
:100030008C1E82288C1E1A281A08A1002108773CE1
:10004000031D3328831605108312051483168510AB
:1000500083128510831605118312051583168511E9
:100060008312851182282108733C031D48288316BA
:1000700005108312051083168510831285148316CC
:1000800005118312051183168511831285158228A7
:100090002108643C031D5D2883160510831205109A
:1000A0008316851083128514831605118312051596
:1000B000831685118312851182282108613C031D56
:1000C0007228831605108312051483168510831277
:1000D000851083160511831205118316851183126D
:1000E0008515822883160510831205108316851046
:1000F000831285108316051183120511831685114D
:08010000831285111828630029
:02400E00713F00
:00000001FF
;PIC16F877A
;CRC=A21C  CREATED="15-ene.-25 11:47"
