:1000000000308A0025280000831605108312051091
:10001000831685108312851083160511831205112E
:10002000831685118312851183160610831206101C
:10003000831686108312861083160611831206110A
:100040008316861183128611080003081F39830066
:10005000193083169900A6309800903083129800CA
:1000600083161F149F141F159F1107309C008313C4
:1000700083128C1ED3288C1E3B281A08A10021084D
:10008000773A03194D28043A03196E28123A0319D6
:100090008F28053A0319B028D1288316051083123A
:1000A0000514831685118312851583168510831216
:1000B000851083160511831205118316061083120D
:1000C00006148316861183128615831686108312F2
:1000D00086108316061183120611D2288316851006
:1000E00083128514831685118312851183160511D9
:1000F00083120515831605108312051083168610CA
:1001000083128614831686118312861183160611B4
:10011000831206158316061083120610D228831642
:100120000611831206118316051183120511831619
:100130008611831286158316851183128515831601
:1001400005108312051083160610831206108316FD
:100150008510831285148316861083128614D22884
:1001600083160611831206158316051183120515D1
:1001700083168611831286118316851183128511C9
:1001800083160510831205148316061083120614B5
:1001900083168510831285108316861083128610AD
:0C01A000D2280420D42804203928630051
:02400E00713F00
:00000001FF
;PIC16F877A
;CRC=FA53  CREATED="14-sep.-24 22:55"
