:1000000000308A000428000003081F3983001930DB
:1000100083169900A63098009030831298008316BA
:100020001F149F141F159F1107309C008313831208
:100030008C1ED2288C1E1A281A08A1002108733C95
:10004000031D432883168612831286168316851095
:100050008312851483168613831286138316051064
:1000600083120510831608118312081183160810D5
:10007000831208148316881083128810831688113F
:1000800083128815D2282108773C031D682883161F
:1000900086128312861283168510831285108316AA
:1000A0008613831286178316051083120514831690
:1000B000081183120815831608108312081083167E
:1000C0008810831288148316881183128811D2280D
:1000D0002108643C031D8D28831686128312861620
:1000E0008316861383128613831685108312851058
:1000F0008316051083120514831688118312881540
:10010000831608118312081183168810831288142D
:100110008316081083120810D2282108613C031DA1
:10012000B2288316861383128617831686128312CB
:100130008612831685108312851483160510831288
:1001400005108316881183128811831608118312F3
:1001500008158316881083128810831608108312DE
:100160000814D228831605108312051083168510F3
:1001700083128510831608108312081083168810C6
:100180008312881083168811831288118316081130
:100190008312081183168612831286128316861321
:0801A000831286131828630086
:02400E00713F00
:00000001FF
;PIC16F877A
;CRC=804A  CREATED="29-sep.-24 19:55"
