:1000000000308A000428000003081F398300FF30F5
:10001000A00083161F149F141F159F1107309C000A
:10002000831306178312061F1F2883168617831251
:10003000861F1F288316081083120814232883168E
:10004000081083120810831606178312061B2D282A
:10005000831686178312861F322883168810831210
:100060008814362883168810831288108316861702
:100070008312861B40288316081183120815442812
:100080008316081183120811831606178312061FA0
:100090005028831686178312861F50280030512857
:1000A0000130013C031D59288316881183128815DD
:1000B0005D28831688118312881183160617831210
:1000C000061B6728831686178312861F692800304F
:1000D0006A280130013C031D742820122008831671
:1000E0008700831207167A282012200883168700BB
:1000F000831207128316061700308312061B013085
:10010000A1008316861700308312861B013021025E
:10011000031D8C2800308D280130013C031D9728D9
:10012000A012200883168700831287169D28A0122C
:100130002008831687008312871283160617003063
:100140008312061B0130A10083168617003083122C
:10015000861B013021020319AF280030B02801307E
:10016000013C031DBA282013200883168700831240
:100170000717C0282013200883168700831207134F
:0601800083161128630044
:02400E00713F00
:00000001FF
;PIC16F877A
;CRC=E72E  CREATED="19-jul.-24 06:14"
