:1000000000308A000428000003081F39830083168B
:100010001F149F141F159F1107309C008313851414
:100020008312851C17288316861083128614831664
:1000300005158312051D2028831606118312061547
:10004000831685158312851D292883168611831230
:100050008615831605168312051E3228831606128E
:1000600083120616831685168312851E3B28831677
:10007000861283128616831688148312881C4428DD
:0E008000831606138312061783160F286300DB
:02400E00713F00
:00000001FF
;PIC16F877A
;CRC=FFC0  CREATED="16-ene.-25 12:41"
