:1000000001308A0051290000831606148312061C51
:100010001528831686158312861D15288316061546
:10002000831206191528A0012628831606148312A8
:10003000061C262883168615831286192628831601
:1000400006158312061D26280130A0008A110A1207
:100050005F29213084008313000803193D280130F3
:10006000F800F701F70B3228F80B31284A30F70077
:10007000F70B38283B28800B2F280800831688119F
:1000800083128811831608118312081183168810B1
:100090008312881083160810831208106430A100A0
:1000A00029200800831606148312061C6328831671
:1000B00008108312081483160811831208158C3057
:1000C000A10029203E2083160614831206188328D7
:1000D000831688108312881483160811831208155A
:1000E000E630A10029208316881083128810831619
:1000F00008108312081483160811831208158C3017
:10010000A10029203E208316061483120618A82871
:100110008316061583120619A828831688108312E1
:1001200088148316081183120815E630A1002920CF
:1001300083168810831288108316081083120814FF
:1001400083160811831208158C30A10029203E2047
:10015000831606158312061DC828831608108312FD
:1001600008148316881183128815B430A100292041
:1001700083168811831288118316081083120814BD
:1001800083160811831208158C30A10029203E2007
:100190008A110A1263298316861583128619E428A8
:1001A0008316081083120814831608118312081589
:1001B0008316881083128810831688118312881181
:1001C0008C30A10029203E208316061483120618C5
:1001D00004298316081083120814831688118312C9
:1001E00088159630A1002920831688118312881162
:1001F0008316081083120814831608118312081539
:100200008C30A10029203E20831606148312061884
:100210002929831686158312861929298316081021
:100220008312081483168811831288159630A10052
:1002300029208316881183128811831608108312CF
:10024000081483160811831208158C30A100292088
:100250003E20831606158312061D4E298316861529
:100260008312861D4E2983168810831288148316E4
:10027000081183120815B430A100292083168810B4
:10028000831288108316081083120814831608112D
:10029000831208158C30A10029203E208A110A12F1
:1002A000652903081F398300A00183161F149F14BA
:1002B0001F159F1107309C00831383120428A00888
:0E02C000031D642952286529CB285E2963009E
:02400E00713F00
:00000001FF
;PIC16F877A
;CRC=26F2  CREATED="05-feb.-25 01:04"
