:1000000000308A000428000003081F3983001930DB
:1000100083169900A6309800903083129800FF3024
:10002000A00083161F149F141F159F1107309C00FA
:10003000831383128C1E7D288C1E1C281A08A10095
:100040002108613C031D2928831608108312081417
:1000500031282108623C031D3128831608108312C1
:1000600008102108633C031D3A2883168810831268
:10007000881442282108643C031D422883168810F6
:10008000831288102108313C031D4D28A01220083E
:10009000831687008312871657282108323C031DD8
:1000A0005728A01220088316870083128712210880
:1000B000333C031D60288316881183128815682835
:1000C0002108343C031D6828831688118312881187
:1000D0002108353C031D7328201220088316870051
:1000E000831207167D282108363C031D7D28201227
:0E00F000200883168700831207121A28630067
:02400E00713F00
:00000001FF
;PIC16F877A
;CRC=F23D  CREATED="08-ago.-24 17:00"
