:1000000000308A0018280000223084008313000882
:10001000031917280630F800F701F70B0D28F80B25
:100020000C287B30F700F70B1328800B0A280800F8
:1000300003081F39830083161F149F141F159F1177
:1000400007309C00831385148312851C4228831675
:100050000515831205194228831685158312851903
:100060004228831605168312051A42288316861025
:10007000831286140430A100FA30A2000420A10BE0
:100080003C28462883168610831286108316851412
:10009000831285187528831605158312051D75288A
:1000A0008316851583128519752883160516831204
:1000B000051E752883160611831206150230A1004D
:1000C000FA30A2000420A10B6028831606118312C7
:1000D000061183168610831286140430A100FA30AC
:1000E000A2000420A10B6F287928831686108312A2
:1000F00086108316851483128518A8288316051583
:1001000083120519A828831685158312851DA82832
:10011000831605168312051EA828831686118312DE
:1001200086150230A100FA30A2000420A10B93280A
:100130008316861183128611831686108312861405
:100140000430A100FA30A2000420A10BA228AC28A0
:0E015000831686108312861083162328630000
:02400E00723FFF
:00000001FF
;PIC16F877A
;CRC=F830  CREATED="27-ene.-25 11:17"
