:1000000000308A006C28000083160510831205104A
:10001000831605118312051183168510831285102E
:100020008316851183128511080022308400831302
:100030000008031928280630F800F701F70B1E28DE
:10004000F80B1D287B30F700F70B2428800B1B28AA
:1000500008008316051083120514831605118312F8
:10006000051183168510831285108316851183125E
:1000700085150430A100AF30A2001520A10B3B284C
:1000800008008316051083120510831605118312CC
:100090000515831685108312851483168511831226
:1000A00085110430A100AF30A2001520A10B532808
:1000B0000800831605108312051483160511831298
:1000C00005158316851083128510831685118312FA
:1000D00085118A110A12DB2803081F398300831651
:1000E0001F149F141F159F1107309C0083130614C3
:1000F0008312061C8728831686148312861C872881
:10010000831606158312061D87280420DD28831612
:1001100006148312061C9828831686148312861CE4
:100120009828831606158312061998282920DD2899
:100130008316061483120618A928831686148312C0
:10014000861CA9288316061583120619A9282920BA
:10015000DD28831606148312061CBA28831686141B
:1001600083128618BA28831606158312061DBA282C
:100170004120DD288316061483120618CB28831627
:10018000861483128618CB28831606158312061D43
:10019000CB284120DD28831606148312061CDC2898
:1001A0008316861483128618DC288316061583129C
:1001B0000619DC285928DD2804208316772800300A
:0401C000F8006300E0
:02400E00713F00
:00000001FF
;PIC16F877A
;CRC=3430  CREATED="05-dic.-24 09:38"
