:1000000000308A0018280000223084008313000882
:10001000031917280630F800F701F70B0D28F80B25
:100020000C287B30F700F70B1328800B0A280800F8
:1000300003081F39830083161F149F141F159F1177
:1000400007309C00831386108312861483160611D2
:100050008312061583168611831286158316861160
:100060008312861583160612831206160830A10025
:10007000FA30A2000420A10B3828831686108312C0
:1000800086108316061183120611831686118312B9
:10009000861183168611831286110830A100FA306A
:0E00A000A2000420A10B4F2883162328630022
:02400E00723FFF
:00000001FF
;PIC16F877A
;CRC=909B  CREATED="04-dic.-24 01:57"
