:1000000000308A0019280000223084008313000881
:10001000031918280130F800F701F70B0D28F80B29
:100020000C284A30F700F70B13281628800B0A28F3
:10003000080003081F39830083161F149F141F151F
:100040009F1107309C00831305108312051483163B
:1000500005118312051583160910831209148316DE
:100060008611831286150430A100C830A200042036
:10007000A10B352883160510831205108316051170
:100080008312051183160910831209108316861135
:10009000831286110430A100C830A2000420A10BF5
:1000A0004C2883168510831285148316051183123C
:1000B000051583168512831285160430A100C830F9
:1000C000A2000420A10B5F288316851083128510DF
:1000D000831605118312051183168512831285126A
:1000E0000430A100C830A2000420A10B722883169E
:1000F0000510831205148316851183128515831646
:100100008512831285160430A100C830A200042095
:10011000A10B8528831605108312051083168511FF
:100120008312851183168512831285120430A10073
:10013000C830A2000420A10B98288316242863004D
:02400E00713F00
:00000001FF
;PIC16F877A
;CRC=33A1  CREATED="14-jul.-24 09:50"
