:1000000000308A0019280000223084008313000881
:10001000031918280130F800F701F70B0D28F80B29
:100020000C284A30F700F70B13281628800B0A28F3
:10003000080003081F39830083161F149F141F151F
:100040009F1107309C00831305108312051483163B
:100050000810831208148316891083128914023041
:10006000A100FA30A2000420A10B3128831605104C
:100070008312051083160810831208108316891046
:10008000831289100230A100FA30A2000420A10BD3
:100090004428831605108312051483160810831252
:1000A000081483160910831209140230A100FA30D3
:1000B000A2000420A10B57288316051083120510F7
:1000C0008316081083120810831609108312091072
:1000D0000230A100FA30A2000420A10B6A28831686
:1000E000851283128516831608108312081483164E
:1000F0000511831205150230A100FA30A200042078
:10010000A10B7D2883168512831285128316081091
:100110008312081083160511831205110230A10005
:10012000FA30A2000420A10B9028831685128312B6
:1001300085168316081083120814831685108312FF
:1001400085140230A100FA30A2000420A10BA328DC
:1001500083168512831285128316081083120810E5
:1001600083168510831285100230A100FA30A20098
:100170000420A10BB62883160510831205148316DC
:100180008512831285168316081283120816023010
:10019000A100FA30A2000420A10BC9288316051083
:1001A0008312051083168512831285128316081296
:1001B000831208120230A100FA30A2000420A10B21
:1001C000DC2883160510831205148316851283120A
:1001D000851683160811831208150230A100FA3023
:1001E000A2000420A10BEF2883160510831205102E
:1001F0008316851283128512831608118312081143
:100200000230A100FA30A2000420A10B02298316BB
:04021000242863003B
:02400E00713F00
:00000001FF
;PIC16F877A
;CRC=FFCF  CREATED="13-jul.-24 17:01"
