:1000000000308A0018280000223084008313000882
:10001000031917280630F800F701F70B0D28F80B25
:100020000C287B30F700F70B1328800B0A280800F8
:1000300003081F39830083161F149F141F159F1177
:1000400007309C0083130510831205148316851254
:100050008312851683168811831288150830A10033
:10006000FA30A2000420A10B302883160510831259
:100070000510831685128312851283168811831248
:1000800088118316051083120514831685128312B6
:10009000851683168810831288140830A100FA3060
:1000A000A2000420A10B4F2883160510831205100F
:1000B0008316851283128512831688108312881086
:1000C000831608108312081483168512831285166E
:1000D00083160511831205150830A100FA30A2001D
:1000E0000420A10B6E2883160810831208108316B3
:1000F000851283128512831605118312051183164A
:10010000081083120814831685128312851683162D
:100110008510831285140830A100FA30A200042053
:10012000A10B8D28831608108312081083168512E0
:10013000831285128316851083128510831605108D
:10014000831205148316081083120814831689106D
:10015000831289140830A100FA30A2000420A10BF8
:10016000AC2883160510831205108316081083121D
:1001700008108316891083128910831605108312C4
:1001800005148316081083120814831609108312AD
:1001900009140830A100FA30A2000420A10BCB28DA
:1001A0008316051083120510831608108312081099
:0E01B00083160910831209108316232863009A
:02400E00713F00
:00000001FF
;PIC16F877A
;CRC=A663  CREATED="01-dic.-24 18:38"
